{
  "contractName": "SimpleStorage",
  "abi": [
    {
      "inputs": [],
      "name": "one",
      "outputs": [
        {
          "internalType": "uint256",
          "name": "",
          "type": "uint256"
        }
      ],
      "stateMutability": "view",
      "type": "function",
      "constant": true
    },
    {
      "inputs": [],
      "name": "zero",
      "outputs": [
        {
          "internalType": "uint256",
          "name": "",
          "type": "uint256"
        }
      ],
      "stateMutability": "view",
      "type": "function",
      "constant": true
    },
    {
      "inputs": [
        {
          "internalType": "string",
          "name": "id",
          "type": "string"
        },
        {
          "internalType": "string",
          "name": "_hash",
          "type": "string"
        }
      ],
      "name": "uploadHash",
      "outputs": [],
      "stateMutability": "nonpayable",
      "type": "function"
    },
    {
      "inputs": [
        {
          "internalType": "string",
          "name": "id",
          "type": "string"
        },
        {
          "internalType": "string",
          "name": "hash",
          "type": "string"
        }
      ],
      "name": "checkHash",
      "outputs": [
        {
          "internalType": "uint256",
          "name": "",
          "type": "uint256"
        }
      ],
      "stateMutability": "view",
      "type": "function",
      "constant": true
    }
  ],
  "bytecode": "0x608060405260018055600060025534801561001957600080fd5b506107d9806100296000396000f3fe608060405234801561001057600080fd5b506004361061004c5760003560e01c8063901717d1146100515780639c4712531461006f578063bc1b392d1461008b578063d635eaf3146100a9575b600080fd5b6100596100d9565b60405161006691906101b6565b60405180910390f35b6100896004803603810190610084919061032b565b6100df565b005b61009361010f565b6040516100a091906101b6565b60405180910390f35b6100c360048036038101906100be919061032b565b610115565b6040516100d091906101b6565b60405180910390f35b60015481565b806000836040516100f09190610414565b9081526020016040518091039020908161010a9190610637565b505050565b60025481565b6000816040516020016101289190610414565b6040516020818303038152906040528051906020012060008460405161014e9190610414565b908152602001604051809103902060405160200161016c919061078c565b6040516020818303038152906040528051906020012003610191576001549050610197565b60025490505b92915050565b6000819050919050565b6101b08161019d565b82525050565b60006020820190506101cb60008301846101a7565b92915050565b6000604051905090565b600080fd5b600080fd5b600080fd5b600080fd5b6000601f19601f8301169050919050565b7f4e487b7100000000000000000000000000000000000000000000000000000000600052604160045260246000fd5b610238826101ef565b810181811067ffffffffffffffff8211171561025757610256610200565b5b80604052505050565b600061026a6101d1565b9050610276828261022f565b919050565b600067ffffffffffffffff82111561029657610295610200565b5b61029f826101ef565b9050602081019050919050565b82818337600083830152505050565b60006102ce6102c98461027b565b610260565b9050828152602081018484840111156102ea576102e96101ea565b5b6102f58482856102ac565b509392505050565b600082601f830112610312576103116101e5565b5b81356103228482602086016102bb565b91505092915050565b60008060408385031215610342576103416101db565b5b600083013567ffffffffffffffff8111156103605761035f6101e0565b5b61036c858286016102fd565b925050602083013567ffffffffffffffff81111561038d5761038c6101e0565b5b610399858286016102fd565b9150509250929050565b600081519050919050565b600081905092915050565b60005b838110156103d75780820151818401526020810190506103bc565b60008484015250505050565b60006103ee826103a3565b6103f881856103ae565b93506104088185602086016103b9565b80840191505092915050565b600061042082846103e3565b915081905092915050565b7f4e487b7100000000000000000000000000000000000000000000000000000000600052602260045260246000fd5b6000600282049050600182168061047257607f821691505b6020821081036104855761048461042b565b5b50919050565b60008190508160005260206000209050919050565b60006020601f8301049050919050565b600082821b905092915050565b6000600883026104ed7fffffffffffffffffffffffffffffffffffffffffffffffffffffffffffffffff826104b0565b6104f786836104b0565b95508019841693508086168417925050509392505050565b6000819050919050565b600061053461052f61052a8461019d565b61050f565b61019d565b9050919050565b6000819050919050565b61054e83610519565b61056261055a8261053b565b8484546104bd565b825550505050565b600090565b61057761056a565b610582818484610545565b505050565b5b818110156105a65761059b60008261056f565b600181019050610588565b5050565b601f8211156105eb576105bc8161048b565b6105c5846104a0565b810160208510156105d4578190505b6105e86105e0856104a0565b830182610587565b50505b505050565b600082821c905092915050565b600061060e600019846008026105f0565b1980831691505092915050565b600061062783836105fd565b9150826002028217905092915050565b610640826103a3565b67ffffffffffffffff81111561065957610658610200565b5b610663825461045a565b61066e8282856105aa565b600060209050601f8311600181146106a1576000841561068f578287015190505b610699858261061b565b865550610701565b601f1984166106af8661048b565b60005b828110156106d7578489015182556001820191506020850194506020810190506106b2565b868310156106f457848901516106f0601f8916826105fd565b8355505b6001600288020188555050505b505050505050565b600081546107168161045a565b61072081866103ae565b9450600182166000811461073b576001811461075057610783565b60ff1983168652811515820286019350610783565b6107598561048b565b60005b8381101561077b5781548189015260018201915060208101905061075c565b838801955050505b50505092915050565b60006107988284610709565b91508190509291505056fea2646970667358221220ecb1ceb84999c8ab535ae62bc42aab8fad7e607e7d4ad453ca4dee703c85a11364736f6c63430008120033",
  "immutableReferences": {},
  "source": "// SPDX-License-Identifier: MIT\npragma solidity >=0.4.22 <0.9.0;\n\ncontract SimpleStorage {\n    mapping(string => string) idToHashMap;\n    uint256 public one = 1;\n    uint256 public zero = 0;\n    \n    function uploadHash(string memory id, string memory _hash) public {\n        idToHashMap[id] = _hash;\n    }\n\n    function checkHash(string memory id, string memory hash)\n        public\n        view\n        returns (uint256)\n    {\n        if (\n            keccak256(abi.encodePacked((idToHashMap[id]))) ==\n            keccak256(abi.encodePacked((hash)))\n        ) {\n            return one;\n        } else {\n            return zero;\n        }\n    }\n}",
  "sourcePath": "D:\\Projects\\Evidence-protection\\truffle\\contracts\\SimpleStorage.sol",
  "compiler": {
    "name": "solc",
    "version": "0.8.18+commit.87f61d96.Emscripten.clang"
  },
  "schemaVersion": "3.4.16",
  "updatedAt": "2025-01-19T14:38:07.069Z",
  "networkType": "ethereum",
  "devdoc": {
    "kind": "dev",
    "methods": {},
    "version": 1
  },
  "userdoc": {
    "kind": "user",
    "methods": {},
    "version": 1
  }
}